:100000000C9446000C945D000C945D000C945D0013
:100010000C945D000C945D000C945D000C945D00EC
:100020000C945D000C945D000C945D000C945D00DC
:100030000C945D000C945D000C945D000C945D00CC
:100040000C945D000C945D000C945D000C945D00BC
:100050000C945D000C945D000C945D000C945D00AC
:100060000C945D000C945D000C945D000C945D009C
:100070000C945D000C945D000C945D000C945D008C
:100080000C945D000C945D000C945D0011241FBE67
:10009000CFEFD0E4DEBFCDBF11E0A0E0B1E0E2E4FD
:1000A000F2E000E00BBF02C007900D92AE30B10746
:1000B000D9F70E9499000C941F010C940000CF9373
:1000C000DF9300D01F92CDB7DEB789837B836A832D
:1000D00089818A3031F48A819B81BC018DE00E9444
:1000E0005F0080EC90E0FC018081882F90E08072BE
:1000F0009927892BB1F386EC90E02981FC012083BC
:1001000080E090E00F900F900F90DF91CF910895D5
:10011000CF93DF93CDB7DEB78AE790E02AE730E0F0
:10012000F9012081206EFC0120830000DF91CF9136
:100130000895CF93DF9300D0CDB7DEB781E290E092
:10014000FC01108282E290E02FEFFC01208384E228
:1001500090E02FEFFC01208385E290E0FC0110820B
:100160008AE290E02FEFFC0120838BE290E0FC011B
:1001700010820E94880088E790E0FC0180819181D4
:100180009A83898389819A81853B924030F085E208
:1001900090E02FEFFC012083EECF89819A818E358C
:1001A000924030F085E290E02FE7FC012083E3CF1E
:1001B00089819A818830924030F085E290E02FE387
:1001C000FC012083D8CF89819A81813B914030F016
:1001D00085E290E02FE1FC012083CDCF89819A81D7
:1001E0008A35914030F085E290E02FE0FC012083D9
:1001F000C2CF89819A818430914030F085E290E0CD
:1002000027E0FC012083B7CF89819A818D3A91053F
:1002100030F085E290E023E0FC012083ACCF8981BF
:100220009A818735910530F085E290E021E0FC016C
:100230002083A1CF85E290E0FC0110829CCFF8944E
:02024000FFCFEE
:0E02420000000002000000005F00000000004D
:00000001FF
